{
  "_format": "hh-sol-artifact-1",
  "contractName": "Voting",
  "sourceName": "contracts/voting.sol",
  "abi": [
    {
      "inputs": [
        {
          "internalType": "string[]",
          "name": "_candidateNames",
          "type": "string[]"
        }
      ],
      "stateMutability": "nonpayable",
      "type": "constructor"
    },
    {
      "inputs": [],
      "name": "MAX_VOTERS",
      "outputs": [
        {
          "internalType": "uint8",
          "name": "",
          "type": "uint8"
        }
      ],
      "stateMutability": "view",
      "type": "function"
    },
    {
      "inputs": [
        {
          "internalType": "uint256",
          "name": "",
          "type": "uint256"
        }
      ],
      "name": "candidates",
      "outputs": [
        {
          "internalType": "string",
          "name": "name",
          "type": "string"
        },
        {
          "internalType": "uint256",
          "name": "voteCount",
          "type": "uint256"
        }
      ],
      "stateMutability": "view",
      "type": "function"
    },
    {
      "inputs": [],
      "name": "endVoting",
      "outputs": [],
      "stateMutability": "nonpayable",
      "type": "function"
    },
    {
      "inputs": [],
      "name": "getWinner",
      "outputs": [
        {
          "internalType": "string",
          "name": "winnerName",
          "type": "string"
        }
      ],
      "stateMutability": "view",
      "type": "function"
    },
    {
      "inputs": [],
      "name": "owner",
      "outputs": [
        {
          "internalType": "address",
          "name": "",
          "type": "address"
        }
      ],
      "stateMutability": "view",
      "type": "function"
    },
    {
      "inputs": [],
      "name": "totalVoters",
      "outputs": [
        {
          "internalType": "uint8",
          "name": "",
          "type": "uint8"
        }
      ],
      "stateMutability": "view",
      "type": "function"
    },
    {
      "inputs": [
        {
          "internalType": "uint256",
          "name": "candidateIndex",
          "type": "uint256"
        }
      ],
      "name": "vote",
      "outputs": [],
      "stateMutability": "nonpayable",
      "type": "function"
    },
    {
      "inputs": [
        {
          "internalType": "address",
          "name": "",
          "type": "address"
        }
      ],
      "name": "voters",
      "outputs": [
        {
          "internalType": "bool",
          "name": "",
          "type": "bool"
        }
      ],
      "stateMutability": "view",
      "type": "function"
    },
    {
      "inputs": [],
      "name": "votingOpen",
      "outputs": [
        {
          "internalType": "bool",
          "name": "",
          "type": "bool"
        }
      ],
      "stateMutability": "view",
      "type": "function"
    }
  ],
  "bytecode": "0x60806040526001600260146101000a81548160ff0219169083151502179055506000600260156101000a81548160ff021916908360ff1602179055503480156200004857600080fd5b50604051620015ee380380620015ee83398181016040528101906200006e9190620003eb565b33600260006101000a81548173ffffffffffffffffffffffffffffffffffffffff021916908373ffffffffffffffffffffffffffffffffffffffff16021790555060005b8151811015620001545760016040518060400160405280848481518110620000df57620000de6200043c565b5b60200260200101518152602001600081525090806001815401808255809150506001900390600052602060002090600202016000909190919091506000820151816000019081620001319190620006b6565b5060208201518160010155505080806200014b90620007cc565b915050620000b2565b505062000819565b6000604051905090565b600080fd5b600080fd5b600080fd5b6000601f19601f8301169050919050565b7f4e487b7100000000000000000000000000000000000000000000000000000000600052604160045260246000fd5b620001c08262000175565b810181811067ffffffffffffffff82111715620001e257620001e162000186565b5b80604052505050565b6000620001f76200015c565b9050620002058282620001b5565b919050565b600067ffffffffffffffff82111562000228576200022762000186565b5b602082029050602081019050919050565b600080fd5b600080fd5b600067ffffffffffffffff82111562000261576200026062000186565b5b6200026c8262000175565b9050602081019050919050565b60005b83811015620002995780820151818401526020810190506200027c565b60008484015250505050565b6000620002bc620002b68462000243565b620001eb565b905082815260208101848484011115620002db57620002da6200023e565b5b620002e884828562000279565b509392505050565b600082601f83011262000308576200030762000170565b5b81516200031a848260208601620002a5565b91505092915050565b60006200033a62000334846200020a565b620001eb565b9050808382526020820190506020840283018581111562000360576200035f62000239565b5b835b81811015620003ae57805167ffffffffffffffff81111562000389576200038862000170565b5b808601620003988982620002f0565b8552602085019450505060208101905062000362565b5050509392505050565b600082601f830112620003d057620003cf62000170565b5b8151620003e284826020860162000323565b91505092915050565b60006020828403121562000404576200040362000166565b5b600082015167ffffffffffffffff8111156200042557620004246200016b565b5b6200043384828501620003b8565b91505092915050565b7f4e487b7100000000000000000000000000000000000000000000000000000000600052603260045260246000fd5b600081519050919050565b7f4e487b7100000000000000000000000000000000000000000000000000000000600052602260045260246000fd5b60006002820490506001821680620004be57607f821691505b602082108103620004d457620004d362000476565b5b50919050565b60008190508160005260206000209050919050565b60006020601f8301049050919050565b600082821b905092915050565b6000600883026200053e7fffffffffffffffffffffffffffffffffffffffffffffffffffffffffffffffff82620004ff565b6200054a8683620004ff565b95508019841693508086168417925050509392505050565b6000819050919050565b6000819050919050565b600062000597620005916200058b8462000562565b6200056c565b62000562565b9050919050565b6000819050919050565b620005b38362000576565b620005cb620005c2826200059e565b8484546200050c565b825550505050565b600090565b620005e2620005d3565b620005ef818484620005a8565b505050565b5b8181101562000617576200060b600082620005d8565b600181019050620005f5565b5050565b601f82111562000666576200063081620004da565b6200063b84620004ef565b810160208510156200064b578190505b620006636200065a85620004ef565b830182620005f4565b50505b505050565b600082821c905092915050565b60006200068b600019846008026200066b565b1980831691505092915050565b6000620006a6838362000678565b9150826002028217905092915050565b620006c1826200046b565b67ffffffffffffffff811115620006dd57620006dc62000186565b5b620006e98254620004a5565b620006f68282856200061b565b600060209050601f8311600181146200072e576000841562000719578287015190505b62000725858262000698565b86555062000795565b601f1984166200073e86620004da565b60005b82811015620007685784890151825560018201915060208501945060208101905062000741565b8683101562000788578489015162000784601f89168262000678565b8355505b6001600288020188555050505b505050505050565b7f4e487b7100000000000000000000000000000000000000000000000000000000600052601160045260246000fd5b6000620007d98262000562565b91507fffffffffffffffffffffffffffffffffffffffffffffffffffffffffffffffff82036200080e576200080d6200079d565b5b600182019050919050565b610dc580620008296000396000f3fe608060405234801561001057600080fd5b50600436106100935760003560e01c80638da5cb5b116100665780638da5cb5b146101215780638e7ea5b21461013f578063a3ec138d1461015d578063a95824b41461018d578063c3403ddf146101ab57610093565b80630121b93f146100985780633477ee2e146100b45780633ceed692146100e55780635f5300ff14610103575b600080fd5b6100b260048036038101906100ad9190610798565b6101b5565b005b6100ce60048036038101906100c99190610798565b6103fc565b6040516100dc929190610864565b60405180910390f35b6100ed6104b8565b6040516100fa91906108b0565b60405180910390f35b61010b6104bd565b60405161011891906108b0565b60405180910390f35b6101296104d0565b604051610136919061090c565b60405180910390f35b6101476104f6565b6040516101549190610927565b60405180910390f35b61017760048036038101906101729190610975565b61067d565b60405161018491906109bd565b60405180910390f35b61019561069d565b6040516101a291906109bd565b60405180910390f35b6101b36106b0565b005b600260149054906101000a900460ff16610204576040517f08c379a00000000000000000000000000000000000000000000000000000000081526004016101fb90610a24565b60405180910390fd5b6000803373ffffffffffffffffffffffffffffffffffffffff1673ffffffffffffffffffffffffffffffffffffffff16815260200190815260200160002060009054906101000a900460ff1615610290576040517f08c379a000000000000000000000000000000000000000000000000000000000815260040161028790610a90565b60405180910390fd5b60018054905081106102d7576040517f08c379a00000000000000000000000000000000000000000000000000000000081526004016102ce90610afc565b60405180910390fd5b601460ff16600260159054906101000a900460ff1660ff161061032f576040517f08c379a000000000000000000000000000000000000000000000000000000000815260040161032690610b68565b60405180910390fd5b60016000803373ffffffffffffffffffffffffffffffffffffffff1673ffffffffffffffffffffffffffffffffffffffff16815260200190815260200160002060006101000a81548160ff0219169083151502179055506001818154811061039a57610399610b88565b5b906000526020600020906002020160010160008154809291906103bc90610be6565b91905055506002601581819054906101000a900460ff16809291906103e090610c2e565b91906101000a81548160ff021916908360ff1602179055505050565b6001818154811061040c57600080fd5b906000526020600020906002020160009150905080600001805461042f90610c86565b80601f016020809104026020016040519081016040528092919081815260200182805461045b90610c86565b80156104a85780601f1061047d576101008083540402835291602001916104a8565b820191906000526020600020905b81548152906001019060200180831161048b57829003601f168201915b5050505050908060010154905082565b601481565b600260159054906101000a900460ff1681565b600260009054906101000a900473ffffffffffffffffffffffffffffffffffffffff1681565b6060600260149054906101000a900460ff1615610548576040517f08c379a000000000000000000000000000000000000000000000000000000000815260040161053f90610d03565b60405180910390fd5b60008060005b6001805490508110156105c75782600182815481106105705761056f610b88565b5b90600052602060002090600202016001015411156105b4576001818154811061059c5761059b610b88565b5b90600052602060002090600202016001015492508091505b80806105bf90610be6565b91505061054e565b50600181815481106105dc576105db610b88565b5b906000526020600020906002020160000180546105f890610c86565b80601f016020809104026020016040519081016040528092919081815260200182805461062490610c86565b80156106715780601f1061064657610100808354040283529160200191610671565b820191906000526020600020905b81548152906001019060200180831161065457829003601f168201915b50505050509250505090565b60006020528060005260406000206000915054906101000a900460ff1681565b600260149054906101000a900460ff1681565b600260009054906101000a900473ffffffffffffffffffffffffffffffffffffffff1673ffffffffffffffffffffffffffffffffffffffff163373ffffffffffffffffffffffffffffffffffffffff1614610740576040517f08c379a000000000000000000000000000000000000000000000000000000000815260040161073790610d6f565b60405180910390fd5b6000600260146101000a81548160ff021916908315150217905550565b600080fd5b6000819050919050565b61077581610762565b811461078057600080fd5b50565b6000813590506107928161076c565b92915050565b6000602082840312156107ae576107ad61075d565b5b60006107bc84828501610783565b91505092915050565b600081519050919050565b600082825260208201905092915050565b60005b838110156107ff5780820151818401526020810190506107e4565b60008484015250505050565b6000601f19601f8301169050919050565b6000610827826107c5565b61083181856107d0565b93506108418185602086016107e1565b61084a8161080b565b840191505092915050565b61085e81610762565b82525050565b6000604082019050818103600083015261087e818561081c565b905061088d6020830184610855565b9392505050565b600060ff82169050919050565b6108aa81610894565b82525050565b60006020820190506108c560008301846108a1565b92915050565b600073ffffffffffffffffffffffffffffffffffffffff82169050919050565b60006108f6826108cb565b9050919050565b610906816108eb565b82525050565b600060208201905061092160008301846108fd565b92915050565b60006020820190508181036000830152610941818461081c565b905092915050565b610952816108eb565b811461095d57600080fd5b50565b60008135905061096f81610949565b92915050565b60006020828403121561098b5761098a61075d565b5b600061099984828501610960565b91505092915050565b60008115159050919050565b6109b7816109a2565b82525050565b60006020820190506109d260008301846109ae565b92915050565b7f566f74696e6720697320636c6f73656400000000000000000000000000000000600082015250565b6000610a0e6010836107d0565b9150610a19826109d8565b602082019050919050565b60006020820190508181036000830152610a3d81610a01565b9050919050565b7f416c726561647920766f74656400000000000000000000000000000000000000600082015250565b6000610a7a600d836107d0565b9150610a8582610a44565b602082019050919050565b60006020820190508181036000830152610aa981610a6d565b9050919050565b7f496e76616c69642063616e646964617465000000000000000000000000000000600082015250565b6000610ae66011836107d0565b9150610af182610ab0565b602082019050919050565b60006020820190508181036000830152610b1581610ad9565b9050919050565b7f566f74696e67206c696d69742072656163686564000000000000000000000000600082015250565b6000610b526014836107d0565b9150610b5d82610b1c565b602082019050919050565b60006020820190508181036000830152610b8181610b45565b9050919050565b7f4e487b7100000000000000000000000000000000000000000000000000000000600052603260045260246000fd5b7f4e487b7100000000000000000000000000000000000000000000000000000000600052601160045260246000fd5b6000610bf182610762565b91507fffffffffffffffffffffffffffffffffffffffffffffffffffffffffffffffff8203610c2357610c22610bb7565b5b600182019050919050565b6000610c3982610894565b915060ff8203610c4c57610c4b610bb7565b5b600182019050919050565b7f4e487b7100000000000000000000000000000000000000000000000000000000600052602260045260246000fd5b60006002820490506001821680610c9e57607f821691505b602082108103610cb157610cb0610c57565b5b50919050565b7f566f74696e67206973207374696c6c206f70656e000000000000000000000000600082015250565b6000610ced6014836107d0565b9150610cf882610cb7565b602082019050919050565b60006020820190508181036000830152610d1c81610ce0565b9050919050565b7f4f6e6c79206f776e65722063616e20656e6420766f74696e6700000000000000600082015250565b6000610d596019836107d0565b9150610d6482610d23565b602082019050919050565b60006020820190508181036000830152610d8881610d4c565b905091905056fea26469706673582212209b9bfa9445b72ea2c8a830e445ab5a13f5ccb109799765217ba1ea5f73b2f1ee64736f6c63430008140033",
  "linkReferences": {},
  "deployedLinkReferences": {}
}